{
    "_format": "hh-sol-artifact-1",
    "contractName": "DAO",
    "sourceName": "contracts/DAO.sol",
    "abi": [
        {
            "anonymous": false,
            "inputs": [
                {
                    "indexed": true,
                    "internalType": "address",
                    "name": "initiator",
                    "type": "address"
                },
                {
                    "indexed": false,
                    "internalType": "bytes32",
                    "name": "role",
                    "type": "bytes32"
                },
                {
                    "indexed": false,
                    "internalType": "string",
                    "name": "message",
                    "type": "string"
                },
                {
                    "indexed": true,
                    "internalType": "address",
                    "name": "beneficiary",
                    "type": "address"
                },
                {
                    "indexed": false,
                    "internalType": "uint256",
                    "name": "amount",
                    "type": "uint256"
                }
            ],
            "name": "Action",
            "type": "event"
        },
        {
            "anonymous": false,
            "inputs": [
                {
                    "indexed": true,
                    "internalType": "bytes32",
                    "name": "role",
                    "type": "bytes32"
                },
                {
                    "indexed": true,
                    "internalType": "bytes32",
                    "name": "previousAdminRole",
                    "type": "bytes32"
                },
                {
                    "indexed": true,
                    "internalType": "bytes32",
                    "name": "newAdminRole",
                    "type": "bytes32"
                }
            ],
            "name": "RoleAdminChanged",
            "type": "event"
        },
        {
            "anonymous": false,
            "inputs": [
                {
                    "indexed": true,
                    "internalType": "bytes32",
                    "name": "role",
                    "type": "bytes32"
                },
                {
                    "indexed": true,
                    "internalType": "address",
                    "name": "account",
                    "type": "address"
                },
                {
                    "indexed": true,
                    "internalType": "address",
                    "name": "sender",
                    "type": "address"
                }
            ],
            "name": "RoleGranted",
            "type": "event"
        },
        {
            "anonymous": false,
            "inputs": [
                {
                    "indexed": true,
                    "internalType": "bytes32",
                    "name": "role",
                    "type": "bytes32"
                },
                {
                    "indexed": true,
                    "internalType": "address",
                    "name": "account",
                    "type": "address"
                },
                {
                    "indexed": true,
                    "internalType": "address",
                    "name": "sender",
                    "type": "address"
                }
            ],
            "name": "RoleRevoked",
            "type": "event"
        },
        {
            "inputs": [],
            "name": "DEFAULT_ADMIN_ROLE",
            "outputs": [
                {
                    "internalType": "bytes32",
                    "name": "",
                    "type": "bytes32"
                }
            ],
            "stateMutability": "view",
            "type": "function"
        },
        {
            "inputs": [
                {
                    "internalType": "uint256",
                    "name": "proposalId",
                    "type": "uint256"
                },
                {
                    "internalType": "bool",
                    "name": "chosen",
                    "type": "bool"
                }
            ],
            "name": "Vote",
            "outputs": [
                {
                    "components": [
                        {
                            "internalType": "address",
                            "name": "voter",
                            "type": "address"
                        },
                        {
                            "internalType": "uint256",
                            "name": "timestamp",
                            "type": "uint256"
                        },
                        {
                            "internalType": "bool",
                            "name": "chosen",
                            "type": "bool"
                        }
                    ],
                    "internalType": "struct DAO.VotedStruct",
                    "name": "",
                    "type": "tuple"
                }
            ],
            "stateMutability": "nonpayable",
            "type": "function"
        },
        {
            "inputs": [],
            "name": "contribute",
            "outputs": [],
            "stateMutability": "payable",
            "type": "function"
        },
        {
            "inputs": [
                {
                    "internalType": "string",
                    "name": "title",
                    "type": "string"
                },
                {
                    "internalType": "string",
                    "name": "description",
                    "type": "string"
                },
                {
                    "internalType": "address",
                    "name": "beneficiary",
                    "type": "address"
                },
                {
                    "internalType": "uint256",
                    "name": "amount",
                    "type": "uint256"
                }
            ],
            "name": "createProposal",
            "outputs": [],
            "stateMutability": "nonpayable",
            "type": "function"
        },
        {
            "inputs": [],
            "name": "daoBalance",
            "outputs": [
                {
                    "internalType": "uint256",
                    "name": "",
                    "type": "uint256"
                }
            ],
            "stateMutability": "view",
            "type": "function"
        },
        {
            "inputs": [],
            "name": "getBalance",
            "outputs": [
                {
                    "internalType": "uint256",
                    "name": "",
                    "type": "uint256"
                }
            ],
            "stateMutability": "view",
            "type": "function"
        },
        {
            "inputs": [],
            "name": "getContributorBalance",
            "outputs": [
                {
                    "internalType": "uint256",
                    "name": "",
                    "type": "uint256"
                }
            ],
            "stateMutability": "view",
            "type": "function"
        },
        {
            "inputs": [
                {
                    "internalType": "uint256",
                    "name": "proposalId",
                    "type": "uint256"
                }
            ],
            "name": "getProposal",
            "outputs": [
                {
                    "components": [
                        {
                            "internalType": "uint256",
                            "name": "id",
                            "type": "uint256"
                        },
                        {
                            "internalType": "uint256",
                            "name": "amount",
                            "type": "uint256"
                        },
                        {
                            "internalType": "uint256",
                            "name": "duration",
                            "type": "uint256"
                        },
                        {
                            "internalType": "uint256",
                            "name": "upvotes",
                            "type": "uint256"
                        },
                        {
                            "internalType": "uint256",
                            "name": "downvotes",
                            "type": "uint256"
                        },
                        {
                            "internalType": "string",
                            "name": "title",
                            "type": "string"
                        },
                        {
                            "internalType": "string",
                            "name": "description",
                            "type": "string"
                        },
                        {
                            "internalType": "bool",
                            "name": "passed",
                            "type": "bool"
                        },
                        {
                            "internalType": "bool",
                            "name": "paid",
                            "type": "bool"
                        },
                        {
                            "internalType": "address payable",
                            "name": "beneficiary",
                            "type": "address"
                        },
                        {
                            "internalType": "address",
                            "name": "proposer",
                            "type": "address"
                        },
                        {
                            "internalType": "address",
                            "name": "executor",
                            "type": "address"
                        }
                    ],
                    "internalType": "struct DAO.ProposalStruct",
                    "name": "",
                    "type": "tuple"
                }
            ],
            "stateMutability": "view",
            "type": "function"
        },
        {
            "inputs": [],
            "name": "getProposals",
            "outputs": [
                {
                    "components": [
                        {
                            "internalType": "uint256",
                            "name": "id",
                            "type": "uint256"
                        },
                        {
                            "internalType": "uint256",
                            "name": "amount",
                            "type": "uint256"
                        },
                        {
                            "internalType": "uint256",
                            "name": "duration",
                            "type": "uint256"
                        },
                        {
                            "internalType": "uint256",
                            "name": "upvotes",
                            "type": "uint256"
                        },
                        {
                            "internalType": "uint256",
                            "name": "downvotes",
                            "type": "uint256"
                        },
                        {
                            "internalType": "string",
                            "name": "title",
                            "type": "string"
                        },
                        {
                            "internalType": "string",
                            "name": "description",
                            "type": "string"
                        },
                        {
                            "internalType": "bool",
                            "name": "passed",
                            "type": "bool"
                        },
                        {
                            "internalType": "bool",
                            "name": "paid",
                            "type": "bool"
                        },
                        {
                            "internalType": "address payable",
                            "name": "beneficiary",
                            "type": "address"
                        },
                        {
                            "internalType": "address",
                            "name": "proposer",
                            "type": "address"
                        },
                        {
                            "internalType": "address",
                            "name": "executor",
                            "type": "address"
                        }
                    ],
                    "internalType": "struct DAO.ProposalStruct[]",
                    "name": "props",
                    "type": "tuple[]"
                }
            ],
            "stateMutability": "view",
            "type": "function"
        },
        {
            "inputs": [
                {
                    "internalType": "bytes32",
                    "name": "role",
                    "type": "bytes32"
                }
            ],
            "name": "getRoleAdmin",
            "outputs": [
                {
                    "internalType": "bytes32",
                    "name": "",
                    "type": "bytes32"
                }
            ],
            "stateMutability": "view",
            "type": "function"
        },
        {
            "inputs": [],
            "name": "getStakeholderBalance",
            "outputs": [
                {
                    "internalType": "uint256",
                    "name": "",
                    "type": "uint256"
                }
            ],
            "stateMutability": "view",
            "type": "function"
        },
        {
            "inputs": [],
            "name": "getStakeholderVotes",
            "outputs": [
                {
                    "internalType": "uint256[]",
                    "name": "",
                    "type": "uint256[]"
                }
            ],
            "stateMutability": "view",
            "type": "function"
        },
        {
            "inputs": [
                {
                    "internalType": "uint256",
                    "name": "proposalId",
                    "type": "uint256"
                }
            ],
            "name": "getVotesOf",
            "outputs": [
                {
                    "components": [
                        {
                            "internalType": "address",
                            "name": "voter",
                            "type": "address"
                        },
                        {
                            "internalType": "uint256",
                            "name": "timestamp",
                            "type": "uint256"
                        },
                        {
                            "internalType": "bool",
                            "name": "chosen",
                            "type": "bool"
                        }
                    ],
                    "internalType": "struct DAO.VotedStruct[]",
                    "name": "",
                    "type": "tuple[]"
                }
            ],
            "stateMutability": "view",
            "type": "function"
        },
        {
            "inputs": [
                {
                    "internalType": "bytes32",
                    "name": "role",
                    "type": "bytes32"
                },
                {
                    "internalType": "address",
                    "name": "account",
                    "type": "address"
                }
            ],
            "name": "grantRole",
            "outputs": [],
            "stateMutability": "nonpayable",
            "type": "function"
        },
        {
            "inputs": [
                {
                    "internalType": "bytes32",
                    "name": "role",
                    "type": "bytes32"
                },
                {
                    "internalType": "address",
                    "name": "account",
                    "type": "address"
                }
            ],
            "name": "hasRole",
            "outputs": [
                {
                    "internalType": "bool",
                    "name": "",
                    "type": "bool"
                }
            ],
            "stateMutability": "view",
            "type": "function"
        },
        {
            "inputs": [],
            "name": "isContributor",
            "outputs": [
                {
                    "internalType": "bool",
                    "name": "",
                    "type": "bool"
                }
            ],
            "stateMutability": "view",
            "type": "function"
        },
        {
            "inputs": [],
            "name": "isStakeholder",
            "outputs": [
                {
                    "internalType": "bool",
                    "name": "",
                    "type": "bool"
                }
            ],
            "stateMutability": "view",
            "type": "function"
        },
        {
            "inputs": [
                {
                    "internalType": "uint256",
                    "name": "proposalId",
                    "type": "uint256"
                }
            ],
            "name": "payBeneficiary",
            "outputs": [
                {
                    "internalType": "uint256",
                    "name": "",
                    "type": "uint256"
                }
            ],
            "stateMutability": "nonpayable",
            "type": "function"
        },
        {
            "inputs": [
                {
                    "internalType": "bytes32",
                    "name": "role",
                    "type": "bytes32"
                },
                {
                    "internalType": "address",
                    "name": "account",
                    "type": "address"
                }
            ],
            "name": "renounceRole",
            "outputs": [],
            "stateMutability": "nonpayable",
            "type": "function"
        },
        {
            "inputs": [
                {
                    "internalType": "bytes32",
                    "name": "role",
                    "type": "bytes32"
                },
                {
                    "internalType": "address",
                    "name": "account",
                    "type": "address"
                }
            ],
            "name": "revokeRole",
            "outputs": [],
            "stateMutability": "nonpayable",
            "type": "function"
        },
        {
            "inputs": [
                {
                    "internalType": "bytes4",
                    "name": "interfaceId",
                    "type": "bytes4"
                }
            ],
            "name": "supportsInterface",
            "outputs": [
                {
                    "internalType": "bool",
                    "name": "",
                    "type": "bool"
                }
            ],
            "stateMutability": "view",
            "type": "function"
        }
    ],
    "bytecode": "0x6101006040527fa0bb1af1c90aa52ed052b92714ff0087008cc720049bf1af77cca2600b31e80c6080908152507ff4bb84e1768dd286358a736d195a0b228621173f655a73b89bf8b191ed0ba07d60a090815250670de0b6b3a764000060c09081525060b463ffffffff1660e09063ffffffff1660e01b81525034801561008557600080fd5b50600160008190555060805160a05160c05160e05160e01c613da7610117600039600061118001526000611b540152600081816105c20152818161085301528181610f1901528181610fe5015281816112090152818161126e015281816114fb0152818161162101528181611ada01528181611bc20152611d850152600081816109cc0152611c430152613da76000f3fe60806040526004361061012a5760003560e01c80637cdc2eb7116100ab578063bd9728161161006f578063bd9728161461041a578063c02146ac14610445578063c7f758a814610470578063d547741f146104ad578063d6cc8016146104d6578063d7bb99ba146105015761012a565b80637cdc2eb7146103215780638bfa1f401461034a57806391d1485414610387578063a217fddf146103c4578063a22f1db7146103ef5761012a565b806336568abe116100f257806336568abe1461023a5780633cdb48c21461026357806362564c481461028e57806369a136dc146102b95780636a80d84d146102f65761012a565b806301ffc9a71461012f578063119c37c81461016c57806312065fe0146101a9578063248a9ca3146101d45780632f2ff15d14610211575b600080fd5b34801561013b57600080fd5b5061015660048036038101906101519190612871565b61050b565b60405161016391906131cd565b60405180910390f35b34801561017857600080fd5b50610193600480360381019061018e919061293d565b610585565b6040516101a09190613492565b60405180910390f35b3480156101b557600080fd5b506101be6108a1565b6040516101cb9190613492565b60405180910390f35b3480156101e057600080fd5b506101fb60048036038101906101f69190612804565b6108e8565b60405161020891906131e8565b60405180910390f35b34801561021d57600080fd5b5061023860048036038101906102339190612831565b610908565b005b34801561024657600080fd5b50610261600480360381019061025c9190612831565b610929565b005b34801561026f57600080fd5b506102786109ac565b6040516102859190613492565b60405180910390f35b34801561029a57600080fd5b506102a3610a7a565b6040516102b09190613167565b60405180910390f35b3480156102c557600080fd5b506102e060048036038101906102db919061293d565b610def565b6040516102ed9190613189565b60405180910390f35b34801561030257600080fd5b5061030b610edc565b6040516103189190613492565b60405180910390f35b34801561032d57600080fd5b506103486004803603810190610343919061289e565b610fc7565b005b34801561035657600080fd5b50610371600480360381019061036c919061296a565b611248565b60405161037e9190613477565b60405180910390f35b34801561039357600080fd5b506103ae60048036038101906103a99190612831565b611572565b6040516103bb91906131cd565b60405180910390f35b3480156103d057600080fd5b506103d96115dd565b6040516103e691906131e8565b60405180910390f35b3480156103fb57600080fd5b506104046115e4565b60405161041191906131ab565b60405180910390f35b34801561042657600080fd5b5061042f61171d565b60405161043c9190613492565b60405180910390f35b34801561045157600080fd5b5061045a611723565b60405161046791906131cd565b60405180910390f35b34801561047c57600080fd5b506104976004803603810190610492919061293d565b61176c565b6040516104a49190613455565b60405180910390f35b3480156104b957600080fd5b506104d460048036038101906104cf9190612831565b611a28565b005b3480156104e257600080fd5b506104eb611a49565b6040516104f891906131cd565b60405180910390f35b610509611a92565b005b60007f7965db0b000000000000000000000000000000000000000000000000000000007bffffffffffffffffffffffffffffffffffffffffffffffffffffffff1916827bffffffffffffffffffffffffffffffffffffffffffffffffffffffff1916148061057e575061057d82611dbd565b5b9050919050565b60006040518060400160405280601f81526020017f556e617574686f72697a65643a205374616b65686f6c64657273206f6e6c79008152506105e77f000000000000000000000000000000000000000000000000000000000000000033611572565b8190610629576040517f08c379a000000000000000000000000000000000000000000000000000000000815260040161062091906132f3565b60405180910390fd5b50610632611e27565b600060046000858152602001908152602001600020905080600101546003541015610692576040517f08c379a0000000000000000000000000000000000000000000000000000000008152600401610689906133d5565b60405180910390fd5b8060070160019054906101000a900460ff16156106e4576040517f08c379a00000000000000000000000000000000000000000000000000000000081526004016106db90613355565b60405180910390fd5b806004015481600301541161072e576040517f08c379a000000000000000000000000000000000000000000000000000000000815260040161072590613335565b60405180910390fd5b60018160070160016101000a81548160ff021916908315150217905550338160090160006101000a81548173ffffffffffffffffffffffffffffffffffffffff021916908373ffffffffffffffffffffffffffffffffffffffff1602179055508060010154600360008282546107a491906136a1565b925050819055506107dd8160070160029054906101000a900473ffffffffffffffffffffffffffffffffffffffff168260010154611e77565b508060070160029054906101000a900473ffffffffffffffffffffffffffffffffffffffff1673ffffffffffffffffffffffffffffffffffffffff163373ffffffffffffffffffffffffffffffffffffffff167fa596782d699d74613fcbf59d33e720baabd313d6be9c95e2268f305430305eb77f0000000000000000000000000000000000000000000000000000000000000000846001015460405161088592919061327b565b60405180910390a360035492505061089b611f2f565b50919050565b6000600760003373ffffffffffffffffffffffffffffffffffffffff1673ffffffffffffffffffffffffffffffffffffffff16815260200190815260200160002054905090565b600060016000838152602001908152602001600020600101549050919050565b610911826108e8565b61091a81611f39565b6109248383611f4d565b505050565b61093161202d565b73ffffffffffffffffffffffffffffffffffffffff168173ffffffffffffffffffffffffffffffffffffffff161461099e576040517f08c379a000000000000000000000000000000000000000000000000000000000815260040161099590613435565b60405180910390fd5b6109a88282612035565b5050565b6000604051806060016040528060218152602001613d1e602191396109f17f000000000000000000000000000000000000000000000000000000000000000033611572565b8190610a33576040517f08c379a0000000000000000000000000000000000000000000000000000000008152600401610a2a91906132f3565b60405180910390fd5b50600760003373ffffffffffffffffffffffffffffffffffffffff1673ffffffffffffffffffffffffffffffffffffffff1681526020019081526020016000205491505090565b6060600260009054906101000a900463ffffffff1663ffffffff1667ffffffffffffffff811115610aae57610aad613947565b5b604051908082528060200260200182016040528015610ae757816020015b610ad46125a8565b815260200190600190039081610acc5790505b50905060005b600260009054906101000a900463ffffffff1663ffffffff16811015610deb5760046000828152602001908152602001600020604051806101800160405290816000820154815260200160018201548152602001600282015481526020016003820154815260200160048201548152602001600582018054610b6e906137e1565b80601f0160208091040260200160405190810160405280929190818152602001828054610b9a906137e1565b8015610be75780601f10610bbc57610100808354040283529160200191610be7565b820191906000526020600020905b815481529060010190602001808311610bca57829003601f168201915b50505050508152602001600682018054610c00906137e1565b80601f0160208091040260200160405190810160405280929190818152602001828054610c2c906137e1565b8015610c795780601f10610c4e57610100808354040283529160200191610c79565b820191906000526020600020905b815481529060010190602001808311610c5c57829003601f168201915b505050505081526020016007820160009054906101000a900460ff161515151581526020016007820160019054906101000a900460ff161515151581526020016007820160029054906101000a900473ffffffffffffffffffffffffffffffffffffffff1673ffffffffffffffffffffffffffffffffffffffff1673ffffffffffffffffffffffffffffffffffffffff1681526020016008820160009054906101000a900473ffffffffffffffffffffffffffffffffffffffff1673ffffffffffffffffffffffffffffffffffffffff1673ffffffffffffffffffffffffffffffffffffffff1681526020016009820160009054906101000a900473ffffffffffffffffffffffffffffffffffffffff1673ffffffffffffffffffffffffffffffffffffffff1673ffffffffffffffffffffffffffffffffffffffff1681525050828281518110610dcd57610dcc613918565b5b60200260200101819052508080610de390613844565b915050610aed565b5090565b606060066000838152602001908152602001600020805480602002602001604051908101604052809291908181526020016000905b82821015610ed157838290600052602060002090600302016040518060600160405290816000820160009054906101000a900473ffffffffffffffffffffffffffffffffffffffff1673ffffffffffffffffffffffffffffffffffffffff1673ffffffffffffffffffffffffffffffffffffffff168152602001600182015481526020016002820160009054906101000a900460ff16151515158152505081526020019060010190610e24565b505050509050919050565b60006040518060400160405280601f81526020017f556e617574686f72697a65643a206e6f742061207374616b65686f6c64657200815250610f3e7f000000000000000000000000000000000000000000000000000000000000000033611572565b8190610f80576040517f08c379a0000000000000000000000000000000000000000000000000000000008152600401610f7791906132f3565b60405180910390fd5b50600860003373ffffffffffffffffffffffffffffffffffffffff1673ffffffffffffffffffffffffffffffffffffffff1681526020019081526020016000205491505090565b604051806060016040528060338152602001613d3f6033913961100a7f000000000000000000000000000000000000000000000000000000000000000033611572565b819061104c576040517f08c379a000000000000000000000000000000000000000000000000000000000815260040161104391906132f3565b60405180910390fd5b5060006002600081819054906101000a900463ffffffff16809291906110719061388d565b91906101000a81548163ffffffff021916908363ffffffff16021790555090506000600460008363ffffffff16815260200190815260200160002090508163ffffffff168160000181905550338160080160006101000a81548173ffffffffffffffffffffffffffffffffffffffff021916908373ffffffffffffffffffffffffffffffffffffffff1602179055508681600501908051906020019061111892919061264f565b508581600601908051906020019061113192919061264f565b50848160070160026101000a81548173ffffffffffffffffffffffffffffffffffffffff021916908373ffffffffffffffffffffffffffffffffffffffff1602179055508381600101819055507f000000000000000000000000000000000000000000000000000000000000000063ffffffff16426111b091906135f1565b81600201819055508473ffffffffffffffffffffffffffffffffffffffff163373ffffffffffffffffffffffffffffffffffffffff167fa596782d699d74613fcbf59d33e720baabd313d6be9c95e2268f305430305eb77f00000000000000000000000000000000000000000000000000000000000000008760405161123792919061323f565b60405180910390a350505050505050565b6112506126d5565b604051806060016040528060308152602001613cee603091396112937f000000000000000000000000000000000000000000000000000000000000000033611572565b81906112d5576040517f08c379a00000000000000000000000000000000000000000000000000000000081526004016112cc91906132f3565b60405180910390fd5b5060006004600086815260200190815260200160002090506112f681612117565b831561131b5780600301600081548092919061131190613844565b9190505550611336565b80600401600081548092919061133090613844565b91905055505b600560003373ffffffffffffffffffffffffffffffffffffffff1673ffffffffffffffffffffffffffffffffffffffff16815260200190815260200160002081600001549080600181540180825580915050600190039060005260206000200160009091909190915055600660008260000154815260200190815260200160002060405180606001604052803373ffffffffffffffffffffffffffffffffffffffff168152602001428152602001861515815250908060018154018082558091505060019003906000526020600020906003020160009091909190915060008201518160000160006101000a81548173ffffffffffffffffffffffffffffffffffffffff021916908373ffffffffffffffffffffffffffffffffffffffff1602179055506020820151816001015560408201518160020160006101000a81548160ff02191690831515021790555050508060070160029054906101000a900473ffffffffffffffffffffffffffffffffffffffff1673ffffffffffffffffffffffffffffffffffffffff163373ffffffffffffffffffffffffffffffffffffffff167fa596782d699d74613fcbf59d33e720baabd313d6be9c95e2268f305430305eb77f0000000000000000000000000000000000000000000000000000000000000000846001015460405161152d929190613203565b60405180910390a360405180606001604052803373ffffffffffffffffffffffffffffffffffffffff1681526020014281526020018515158152509250505092915050565b60006001600084815260200190815260200160002060000160008373ffffffffffffffffffffffffffffffffffffffff1673ffffffffffffffffffffffffffffffffffffffff16815260200190815260200160002060009054906101000a900460ff16905092915050565b6000801b81565b60606040518060400160405280601f81526020017f556e617574686f72697a65643a206e6f742061207374616b65686f6c646572008152506116467f000000000000000000000000000000000000000000000000000000000000000033611572565b8190611688576040517f08c379a000000000000000000000000000000000000000000000000000000000815260040161167f91906132f3565b60405180910390fd5b50600560003373ffffffffffffffffffffffffffffffffffffffff1673ffffffffffffffffffffffffffffffffffffffff16815260200190815260200160002080548060200260200160405190810160405280929190818152602001828054801561171257602002820191906000526020600020905b8154815260200190600101908083116116fe575b505050505091505090565b60035481565b600080600860003373ffffffffffffffffffffffffffffffffffffffff1673ffffffffffffffffffffffffffffffffffffffff1681526020019081526020016000205411905090565b6117746125a8565b600460008381526020019081526020016000206040518061018001604052908160008201548152602001600182015481526020016002820154815260200160038201548152602001600482015481526020016005820180546117d5906137e1565b80601f0160208091040260200160405190810160405280929190818152602001828054611801906137e1565b801561184e5780601f106118235761010080835404028352916020019161184e565b820191906000526020600020905b81548152906001019060200180831161183157829003601f168201915b50505050508152602001600682018054611867906137e1565b80601f0160208091040260200160405190810160405280929190818152602001828054611893906137e1565b80156118e05780601f106118b5576101008083540402835291602001916118e0565b820191906000526020600020905b8154815290600101906020018083116118c357829003601f168201915b505050505081526020016007820160009054906101000a900460ff161515151581526020016007820160019054906101000a900460ff161515151581526020016007820160029054906101000a900473ffffffffffffffffffffffffffffffffffffffff1673ffffffffffffffffffffffffffffffffffffffff1673ffffffffffffffffffffffffffffffffffffffff1681526020016008820160009054906101000a900473ffffffffffffffffffffffffffffffffffffffff1673ffffffffffffffffffffffffffffffffffffffff1673ffffffffffffffffffffffffffffffffffffffff1681526020016009820160009054906101000a900473ffffffffffffffffffffffffffffffffffffffff1673ffffffffffffffffffffffffffffffffffffffff1673ffffffffffffffffffffffffffffffffffffffff16815250509050919050565b611a31826108e8565b611a3a81611f39565b611a448383612035565b505050565b600080600760003373ffffffffffffffffffffffffffffffffffffffff1673ffffffffffffffffffffffffffffffffffffffff1681526020019081526020016000205411905090565b60003411611ad5576040517f08c379a0000000000000000000000000000000000000000000000000000000008152600401611acc906133b5565b60405180910390fd5b611aff7f000000000000000000000000000000000000000000000000000000000000000033611572565b611c6e57600034600760003373ffffffffffffffffffffffffffffffffffffffff1673ffffffffffffffffffffffffffffffffffffffff16815260200190815260200160002054611b5091906135f1565b90507f00000000000000000000000000000000000000000000000000000000000000008110611be85780600860003373ffffffffffffffffffffffffffffffffffffffff1673ffffffffffffffffffffffffffffffffffffffff16815260200190815260200160002081905550611be77f0000000000000000000000000000000000000000000000000000000000000000336122ac565b5b34600760003373ffffffffffffffffffffffffffffffffffffffff1673ffffffffffffffffffffffffffffffffffffffff1681526020019081526020016000206000828254611c3791906135f1565b92505081905550611c687f000000000000000000000000000000000000000000000000000000000000000033611f4d565b50611d1b565b34600760003373ffffffffffffffffffffffffffffffffffffffff1673ffffffffffffffffffffffffffffffffffffffff1681526020019081526020016000206000828254611cbd91906135f1565b9250508190555034600860003373ffffffffffffffffffffffffffffffffffffffff1673ffffffffffffffffffffffffffffffffffffffff1681526020019081526020016000206000828254611d1391906135f1565b925050819055505b3460036000828254611d2d91906135f1565b925050819055503073ffffffffffffffffffffffffffffffffffffffff163373ffffffffffffffffffffffffffffffffffffffff167fa596782d699d74613fcbf59d33e720baabd313d6be9c95e2268f305430305eb77f000000000000000000000000000000000000000000000000000000000000000034604051611db39291906132b7565b60405180910390a3565b60007f01ffc9a7000000000000000000000000000000000000000000000000000000007bffffffffffffffffffffffffffffffffffffffffffffffffffffffff1916827bffffffffffffffffffffffffffffffffffffffffffffffffffffffff1916149050919050565b60026000541415611e6d576040517f08c379a0000000000000000000000000000000000000000000000000000000008152600401611e64906133f5565b60405180910390fd5b6002600081905550565b6000808373ffffffffffffffffffffffffffffffffffffffff1683604051611e9e90613118565b60006040518083038185875af1925050503d8060008114611edb576040519150601f19603f3d011682016040523d82523d6000602084013e611ee0565b606091505b5050905080611f24576040517f08c379a0000000000000000000000000000000000000000000000000000000008152600401611f1b90613395565b60405180910390fd5b600191505092915050565b6001600081905550565b611f4a81611f4561202d565b6122ba565b50565b611f578282611572565b61202957600180600084815260200190815260200160002060000160008373ffffffffffffffffffffffffffffffffffffffff1673ffffffffffffffffffffffffffffffffffffffff16815260200190815260200160002060006101000a81548160ff021916908315150217905550611fce61202d565b73ffffffffffffffffffffffffffffffffffffffff168173ffffffffffffffffffffffffffffffffffffffff16837f2f8788117e7eff1d82e926ec794901d17c78024a50270940304540a733656f0d60405160405180910390a45b5050565b600033905090565b61203f8282611572565b156121135760006001600084815260200190815260200160002060000160008373ffffffffffffffffffffffffffffffffffffffff1673ffffffffffffffffffffffffffffffffffffffff16815260200190815260200160002060006101000a81548160ff0219169083151502179055506120b861202d565b73ffffffffffffffffffffffffffffffffffffffff168173ffffffffffffffffffffffffffffffffffffffff16837ff6391f5c32d9c69d2a47ea670b442974b53935d1edc7fd64eb21e047a839171b60405160405180910390a45b5050565b8060070160009054906101000a900460ff1680612138575042816002015411155b156121955760018160070160006101000a81548160ff0219169083151502179055506040517f08c379a000000000000000000000000000000000000000000000000000000000815260040161218c90613415565b60405180910390fd5b6000600560003373ffffffffffffffffffffffffffffffffffffffff1673ffffffffffffffffffffffffffffffffffffffff16815260200190815260200160002080548060200260200160405190810160405280929190818152602001828054801561222057602002820191906000526020600020905b81548152602001906001019080831161220c575b5050505050905060005b81518110156122a75781818151811061224657612245613918565b5b602002602001015183600001541415612294576040517f08c379a000000000000000000000000000000000000000000000000000000000815260040161228b90613375565b60405180910390fd5b808061229f90613844565b91505061222a565b505050565b6122b68282611f4d565b5050565b6122c48282611572565b61233b576122d18161233f565b6122df8360001c602061236c565b6040516020016122f092919061312d565b6040516020818303038152906040526040517f08c379a000000000000000000000000000000000000000000000000000000000815260040161233291906132f3565b60405180910390fd5b5050565b60606123658273ffffffffffffffffffffffffffffffffffffffff16601460ff1661236c565b9050919050565b60606000600283600261237f9190613647565b61238991906135f1565b67ffffffffffffffff8111156123a2576123a1613947565b5b6040519080825280601f01601f1916602001820160405280156123d45781602001600182028036833780820191505090505b5090507f30000000000000000000000000000000000000000000000000000000000000008160008151811061240c5761240b613918565b5b60200101907effffffffffffffffffffffffffffffffffffffffffffffffffffffffffffff1916908160001a9053507f7800000000000000000000000000000000000000000000000000000000000000816001815181106124705761246f613918565b5b60200101907effffffffffffffffffffffffffffffffffffffffffffffffffffffffffffff1916908160001a905350600060018460026124b09190613647565b6124ba91906135f1565b90505b600181111561255a577f3031323334353637383961626364656600000000000000000000000000000000600f8616601081106124fc576124fb613918565b5b1a60f81b82828151811061251357612512613918565b5b60200101907effffffffffffffffffffffffffffffffffffffffffffffffffffffffffffff1916908160001a905350600485901c945080612553906137b7565b90506124bd565b506000841461259e576040517f08c379a000000000000000000000000000000000000000000000000000000000815260040161259590613315565b60405180910390fd5b8091505092915050565b60405180610180016040528060008152602001600081526020016000815260200160008152602001600081526020016060815260200160608152602001600015158152602001600015158152602001600073ffffffffffffffffffffffffffffffffffffffff168152602001600073ffffffffffffffffffffffffffffffffffffffff168152602001600073ffffffffffffffffffffffffffffffffffffffff1681525090565b82805461265b906137e1565b90600052602060002090601f01602090048101928261267d57600085556126c4565b82601f1061269657805160ff19168380011785556126c4565b828001600101855582156126c4579182015b828111156126c35782518255916020019190600101906126a8565b5b5090506126d1919061270e565b5090565b6040518060600160405280600073ffffffffffffffffffffffffffffffffffffffff168152602001600081526020016000151581525090565b5b8082111561272757600081600090555060010161270f565b5090565b600061273e612739846134d2565b6134ad565b90508281526020810184848401111561275a5761275961397b565b5b612765848285613775565b509392505050565b60008135905061277c81613c7a565b92915050565b60008135905061279181613c91565b92915050565b6000813590506127a681613ca8565b92915050565b6000813590506127bb81613cbf565b92915050565b600082601f8301126127d6576127d5613976565b5b81356127e684826020860161272b565b91505092915050565b6000813590506127fe81613cd6565b92915050565b60006020828403121561281a57612819613985565b5b600061282884828501612797565b91505092915050565b6000806040838503121561284857612847613985565b5b600061285685828601612797565b92505060206128678582860161276d565b9150509250929050565b60006020828403121561288757612886613985565b5b6000612895848285016127ac565b91505092915050565b600080600080608085870312156128b8576128b7613985565b5b600085013567ffffffffffffffff8111156128d6576128d5613980565b5b6128e2878288016127c1565b945050602085013567ffffffffffffffff81111561290357612902613980565b5b61290f878288016127c1565b93505060406129208782880161276d565b9250506060612931878288016127ef565b91505092959194509250565b60006020828403121561295357612952613985565b5b6000612961848285016127ef565b91505092915050565b6000806040838503121561298157612980613985565b5b600061298f858286016127ef565b92505060206129a085828601612782565b9150509250929050565b60006129b68383612e60565b905092915050565b60006129ca8383613076565b60608301905092915050565b60006129e283836130fa565b60208301905092915050565b6129f7816136e7565b82525050565b612a06816136d5565b82525050565b6000612a1782613533565b612a218185613586565b935083602082028501612a3385613503565b8060005b85811015612a6f5784840389528151612a5085826129aa565b9450612a5b8361355f565b925060208a01995050600181019050612a37565b50829750879550505050505092915050565b6000612a8c8261353e565b612a968185613597565b9350612aa183613513565b8060005b83811015612ad2578151612ab988826129be565b9750612ac48361356c565b925050600181019050612aa5565b5085935050505092915050565b6000612aea82613549565b612af481856135a8565b9350612aff83613523565b8060005b83811015612b30578151612b1788826129d6565b9750612b2283613579565b925050600181019050612b03565b5085935050505092915050565b612b46816136f9565b82525050565b612b55816136f9565b82525050565b612b6481613705565b82525050565b6000612b7582613554565b612b7f81856135c4565b9350612b8f818560208601613784565b612b988161398a565b840191505092915050565b6000612bae82613554565b612bb881856135d5565b9350612bc8818560208601613784565b612bd18161398a565b840191505092915050565b6000612be782613554565b612bf181856135e6565b9350612c01818560208601613784565b80840191505092915050565b6000612c1a600d836135d5565b9150612c258261399b565b602082019050919050565b6000612c3d6020836135d5565b9150612c48826139c4565b602082019050919050565b6000612c606012836135d5565b9150612c6b826139ed565b602082019050919050565b6000612c836013836135d5565b9150612c8e82613a16565b602082019050919050565b6000612ca6600f836135d5565b9150612cb182613a3f565b602082019050919050565b6000612cc96019836135d5565b9150612cd482613a68565b602082019050919050565b6000612cec600e836135d5565b9150612cf782613a91565b602082019050919050565b6000612d0f6000836135b9565b9150612d1a82613aba565b600082019050919050565b6000612d326021836135d5565b9150612d3d82613abd565b604082019050919050565b6000612d556017836135e6565b9150612d6082613b0c565b601782019050919050565b6000612d786011836135d5565b9150612d8382613b35565b602082019050919050565b6000612d9b6012836135d5565b9150612da682613b5e565b602082019050919050565b6000612dbe601f836135d5565b9150612dc982613b87565b602082019050919050565b6000612de16015836135d5565b9150612dec82613bb0565b602082019050919050565b6000612e046011836135e6565b9150612e0f82613bd9565b601182019050919050565b6000612e276019836135d5565b9150612e3282613c02565b602082019050919050565b6000612e4a602f836135d5565b9150612e5582613c2b565b604082019050919050565b600061018083016000830151612e7960008601826130fa565b506020830151612e8c60208601826130fa565b506040830151612e9f60408601826130fa565b506060830151612eb260608601826130fa565b506080830151612ec560808601826130fa565b5060a083015184820360a0860152612edd8282612b6a565b91505060c083015184820360c0860152612ef78282612b6a565b91505060e0830151612f0c60e0860182612b3d565b50610100830151612f21610100860182612b3d565b50610120830151612f366101208601826129ee565b50610140830151612f4b6101408601826129fd565b50610160830151612f606101608601826129fd565b508091505092915050565b600061018083016000830151612f8460008601826130fa565b506020830151612f9760208601826130fa565b506040830151612faa60408601826130fa565b506060830151612fbd60608601826130fa565b506080830151612fd060808601826130fa565b5060a083015184820360a0860152612fe88282612b6a565b91505060c083015184820360c08601526130028282612b6a565b91505060e083015161301760e0860182612b3d565b5061010083015161302c610100860182612b3d565b506101208301516130416101208601826129ee565b506101408301516130566101408601826129fd565b5061016083015161306b6101608601826129fd565b508091505092915050565b60608201600082015161308c60008501826129fd565b50602082015161309f60208501826130fa565b5060408201516130b26040850182612b3d565b50505050565b6060820160008201516130ce60008501826129fd565b5060208201516130e160208501826130fa565b5060408201516130f46040850182612b3d565b50505050565b6131038161375b565b82525050565b6131128161375b565b82525050565b600061312382612d02565b9150819050919050565b600061313882612d48565b91506131448285612bdc565b915061314f82612df7565b915061315b8284612bdc565b91508190509392505050565b600060208201905081810360008301526131818184612a0c565b905092915050565b600060208201905081810360008301526131a38184612a81565b905092915050565b600060208201905081810360008301526131c58184612adf565b905092915050565b60006020820190506131e26000830184612b4c565b92915050565b60006020820190506131fd6000830184612b5b565b92915050565b60006060820190506132186000830185612b5b565b818103602083015261322981612c0d565b90506132386040830184613109565b9392505050565b60006060820190506132546000830185612b5b565b818103602083015261326581612c99565b90506132746040830184613109565b9392505050565b60006060820190506132906000830185612b5b565b81810360208301526132a181612d8e565b90506132b06040830184613109565b9392505050565b60006060820190506132cc6000830185612b5b565b81810360208301526132dd81612dd4565b90506132ec6040830184613109565b9392505050565b6000602082019050818103600083015261330d8184612ba3565b905092915050565b6000602082019050818103600083015261332e81612c30565b9050919050565b6000602082019050818103600083015261334e81612c53565b9050919050565b6000602082019050818103600083015261336e81612c76565b9050919050565b6000602082019050818103600083015261338e81612cbc565b9050919050565b600060208201905081810360008301526133ae81612cdf565b9050919050565b600060208201905081810360008301526133ce81612d25565b9050919050565b600060208201905081810360008301526133ee81612d6b565b9050919050565b6000602082019050818103600083015261340e81612db1565b9050919050565b6000602082019050818103600083015261342e81612e1a565b9050919050565b6000602082019050818103600083015261344e81612e3d565b9050919050565b6000602082019050818103600083015261346f8184612f6b565b905092915050565b600060608201905061348c60008301846130b8565b92915050565b60006020820190506134a76000830184613109565b92915050565b60006134b76134c8565b90506134c38282613813565b919050565b6000604051905090565b600067ffffffffffffffff8211156134ed576134ec613947565b5b6134f68261398a565b9050602081019050919050565b6000819050602082019050919050565b6000819050602082019050919050565b6000819050602082019050919050565b600081519050919050565b600081519050919050565b600081519050919050565b600081519050919050565b6000602082019050919050565b6000602082019050919050565b6000602082019050919050565b600082825260208201905092915050565b600082825260208201905092915050565b600082825260208201905092915050565b600081905092915050565b600082825260208201905092915050565b600082825260208201905092915050565b600081905092915050565b60006135fc8261375b565b91506136078361375b565b9250827fffffffffffffffffffffffffffffffffffffffffffffffffffffffffffffffff0382111561363c5761363b6138ba565b5b828201905092915050565b60006136528261375b565b915061365d8361375b565b9250817fffffffffffffffffffffffffffffffffffffffffffffffffffffffffffffffff0483118215151615613696576136956138ba565b5b828202905092915050565b60006136ac8261375b565b91506136b78361375b565b9250828210156136ca576136c96138ba565b5b828203905092915050565b60006136e08261373b565b9050919050565b60006136f28261373b565b9050919050565b60008115159050919050565b6000819050919050565b60007fffffffff0000000000000000000000000000000000000000000000000000000082169050919050565b600073ffffffffffffffffffffffffffffffffffffffff82169050919050565b6000819050919050565b600063ffffffff82169050919050565b82818337600083830152505050565b60005b838110156137a2578082015181840152602081019050613787565b838111156137b1576000848401525b50505050565b60006137c28261375b565b915060008214156137d6576137d56138ba565b5b600182039050919050565b600060028204905060018216806137f957607f821691505b6020821081141561380d5761380c6138e9565b5b50919050565b61381c8261398a565b810181811067ffffffffffffffff8211171561383b5761383a613947565b5b80604052505050565b600061384f8261375b565b91507fffffffffffffffffffffffffffffffffffffffffffffffffffffffffffffffff821415613882576138816138ba565b5b600182019050919050565b600061389882613765565b915063ffffffff8214156138af576138ae6138ba565b5b600182019050919050565b7f4e487b7100000000000000000000000000000000000000000000000000000000600052601160045260246000fd5b7f4e487b7100000000000000000000000000000000000000000000000000000000600052602260045260246000fd5b7f4e487b7100000000000000000000000000000000000000000000000000000000600052603260045260246000fd5b7f4e487b7100000000000000000000000000000000000000000000000000000000600052604160045260246000fd5b600080fd5b600080fd5b600080fd5b600080fd5b6000601f19601f8301169050919050565b7f50524f504f53414c20564f544500000000000000000000000000000000000000600082015250565b7f537472696e67733a20686578206c656e67746820696e73756666696369656e74600082015250565b7f496e73756666696369656e7420766f7465730000000000000000000000000000600082015250565b7f5061796d656e742073656e74206265666f726500000000000000000000000000600082015250565b7f50524f504f53414c205241495345440000000000000000000000000000000000600082015250565b7f446f75626c6520766f74696e67206e6f7420616c6c6f77656400000000000000600082015250565b7f5061796d656e74206661696c6564000000000000000000000000000000000000600082015250565b50565b7f436f6e747269627574696e67207a65726f206973206e6f7420616c6c6f77656460008201527f2e00000000000000000000000000000000000000000000000000000000000000602082015250565b7f416363657373436f6e74726f6c3a206163636f756e7420000000000000000000600082015250565b7f496e73756666696369656e742066756e64000000000000000000000000000000600082015250565b7f5041594d454e54205452414e5346455245440000000000000000000000000000600082015250565b7f5265656e7472616e637947756172643a207265656e7472616e742063616c6c00600082015250565b7f434f4e545249425554494f4e2052454345495645440000000000000000000000600082015250565b7f206973206d697373696e6720726f6c6520000000000000000000000000000000600082015250565b7f70726f706f73616c206475726174696f6e206578706972656400000000000000600082015250565b7f416363657373436f6e74726f6c3a2063616e206f6e6c792072656e6f756e636560008201527f20726f6c657320666f722073656c660000000000000000000000000000000000602082015250565b613c83816136d5565b8114613c8e57600080fd5b50565b613c9a816136f9565b8114613ca557600080fd5b50565b613cb181613705565b8114613cbc57600080fd5b50565b613cc88161370f565b8114613cd357600080fd5b50565b613cdf8161375b565b8114613cea57600080fd5b5056fe556e617574686f72697a6564206163636573733a205374616b65686f6c64657273206f6e6c79207065726d697474656444656e6965643a2055736572206973206e6f74206120636f6e7472696275746f7270726f706f73616c206372656174696f6e20616c6c6f77656420666f7220746865207374616b65686f6c64657273206f6e6c79a2646970667358221220651cdb8a2f99e62df495a2170e5d3d61bf45917160036eacb2ad7394ddc7be9364736f6c63430008060033",
    "linkReferences": {},
    "deployedLinkReferences": {}
}